:020000040000FA
:040000006DEF14F09C
:1010000000446573697265642054656D703D2564A4
:101010000043757272656E742054656D703D256471
:101020000054656D70206173206465736972656436
:1010300000656E74657220796F75722074656D70CD
:1010400000496E76616C696420496E707574004F5A
:101050005554206F662072616E6765004865617443
:101060006572204F4E0046616E204F4E00001850B2
:10107000800B256E185018242C6E17AE42EF08F026
:1010800044EF08F045EF08F02C802C50D8B44BEF1B
:1010900008F04DEF08F062EF08F02C28D8A453EFC9
:1010A00008F055EF08F05DEF08F0000E156E000E29
:1010B000166E000E176E000E186E178E000E186E4C
:1010C0006AEF08F0000E156E000E166E000E176E19
:1010D000000E186E1C50800B251A1C501C242D6EFF
:1010E0001BAE75EF08F077EF08F078EF08F02D8071
:1010F0002D50D8B47EEF08F080EF08F095EF08F09F
:101100002D28D8A486EF08F088EF08F090EF08F0BB
:10111000000E196E000E1A6E000E1B6E000E1C6E75
:101120001B8E000E1C6E9DEF08F0000E196E000E57
:101130001A6E000E1B6E000E1C6E19501A101B103A
:101140001C10D8A4A6EF08F0A8EF08F0C0EF08F034
:10115000000E156E000E166E000E176E000E186E45
:10116000800E17127F0E18122550181215C015F098
:1011700016C016F017C017F018C018F003EF0AF0E9
:101180002C50D8A4C6EF08F0C8EF08F0D2EF08F052
:10119000000E156E000E166E000E176E000E186E05
:1011A00003EF0AF02D502CC01DF01E6A1D5E000ECC
:1011B0001E5A7F0E1D24266E000E1E20276E15C09F
:1011C00021F016C022F017C023F018C024F0000E42
:1011D000156E000E166E000E176E000E186E000EC5
:1011E000286E000E296E000E2A6E000E2B6E000E69
:1011F0002D6E33EF09F02D50D8B401EF09F003EF55
:1012000009F01AEF09F0D890213622362336243619
:10121000D89015361636173618362BAE12EF09F061
:1012200014EF09F015EF09F01580D890283629360B
:101230002A362B361950215C1A5022581B5023583D
:101240001C502458D8A027EF09F029EF09F032EFFD
:1012500009F02B8C1950215E1A50225A1B50235A28
:101260001C50245A2D2A190E2D6439EF09F03BEF3A
:1012700009F0FBEF08F02150221023102410D8B4FD
:1012800044EF09F046EF09F05EEF09F028805EEFC9
:1012900009F0D89015361636173618362BAE53EFA0
:1012A00009F055EF09F056EF09F01580D89028366F
:1012B00029362A362B362606D8A0270617AE63EF26
:1012C00009F065EF09F049EF09F0000E2D6E2BAE25
:1012D0006CEF09F06EEF09F092EF09F0FF0E2814A1
:1012E0001D6EFF0E29141E6EFF0E2A141F6E7F0E38
:1012F0002B14206E1D501E101F102010D8B483EF29
:1013000009F085EF09F089EF09F0010E2D6E92EFDB
:1013100009F015A08EEF09F090EF09F092EF09F0B7
:1013200085EF09F02D50D8B498EF09F09AEF09F045
:10133000BEEF09F0010E1526000E16221722182204
:1013400018A0A5EF09F0A7EF09F0BEEF09F015C04E
:101350001DF016C01EF017C01FF018C020F020347A
:1013600020321F321E321D321DC015F01EC016F075
:101370001FC017F020C018F0264A272A27BEC9EF41
:1013800009F0275008E12628D8A0C9EF09F0CBEFD3
:1013900009F0D6EF09F0000E276E2668000E156ED4
:1013A000000E166E000E176E000E186E27BEE3EFCD
:1013B00009F0275006E12604D8B0E1EF09F0E3EF89
:1013C00009F0F1EF09F0000E276E000E266E000EF8
:1013D000156E000E166E000E176E000E186E000EC3
:1013E000256E26C02CF02CA0F8EF09F0FAEF09F0DA
:1013F000FDEF09F0178EFEEF09F0179ED8902C3004
:10140000186EB4EF08F01200000E956E9498949A3E
:1014100033EC14F0CCEC14F00001C8698B988B9A73
:10142000000E0001CC6F000ECB6FC60ECB25D96E1F
:10143000000ECC21DA6E000EDF6ECB4BCC2BCCBF76
:101440002BEF0AF0CC5109E1020ECB5DD8A02BEFB7
:101450000AF02DEF0AF015EF0AF0000E0A6E000EEA
:1014600031EC13F0310E0A6E100E0B6EF3EC12F02D
:10147000090E5F6E1E0E5E6EE40EE82EFED75E2E27
:10148000FCD75F2EFAD700F000F0010E50EC14F0FC
:10149000000E0001CE6F000ECD6F100EC86153EF2D
:1014A0000AF055EF0AF062EF0AF0C60ECD25D96EAC
:1014B000000ECE21DA6EC851DDEC10F0DF6E350E75
:1014C000A3EC14F00001CD4BCE2BCEBF71EF0AF090
:1014D000CE5109E1020ECD5DD8A071EF0AF073EF95
:1014E0000AF04DEF0AF00B0E5F6E260E5E6E5E0E7A
:1014F000E82EFED75E2EFCD75F2EFAD7000E000135
:10150000D06F000ECF6FCF51D011D8A48AEF0AF060
:101510008CEF0AF0A6EF0AF0C60ECF25D96E000EAA
:10152000D021DA6EDF505E6ED00E5E24016E026A4C
:10153000FF0E0222000E046E0A0E036EB9EC14F0C8
:1015400001C07CF002C07DF0B4EF0AF0C60ECF25DA
:10155000D96E000ED021DA6EDF505E6ED00E5E24A2
:101560007A6F7B6BFF0E7B230001CF4BD02BD0BF5C
:10157000C3EF0AF0D05109E1020ECF5DD8A0C3EF4E
:101580000AF0C5EF0AF083EF0AF07A517C25786FF4
:101590007B517D21796F79BFD7EF0AF0795109E14D
:1015A000280E785DD8A0D7EF0AF0D9EF0AF0E7EF60
:1015B0000AF079BFE5EF0AF0795109E1640E785D30
:1015C000D8A0E5EF0AF0E7EF0AF007EF0BF0000E06
:1015D0000A6E000E31EC13F0010E50EC14F04F0EB9
:1015E0000A6E100E0B6EF3EC12F0090E5F6E1E0EFB
:1015F0005E6EE40EE82EFED75E2EFCD75F2EFAD785
:1016000000F000F0010E50EC14F00EEF0AF0000EA6
:1016100000016F6F000E6E6F000E6D6F000E6C6F2D
:10162000000E6B6F000E6A6F000E0A6E000E31EC3A
:1016300013F09EEC12F038C0C9F039C0CAF0010EA8
:1016400050EC14F0AE0E586E000E596E110E5A6E1C
:10165000100E5B6EC9C05CF0CAC05DF0C8EC13F040
:10166000AE0E0A6E000E0B6EF3EC12F0010E0A6E57
:10167000000E31EC13F09E0E586E000E596E010EE6
:101680005A6E100E5B6E78C05CF079C05DF0C8ECED
:1016900013F09E0E0A6E000E0B6EF3EC12F0110E9C
:1016A0005F6E3C0E5E6ECB0EE82EFED75E2EFCD734
:1016B0005F2EFAD700F00001C951785D7951800A98
:1016C0005E6ECA51800A5E58D8B069EF0BF06BEFBE
:1016D0000BF08AEF0BF08B988B8A010E50EC14F014
:1016E000000E0A6E000E31EC13F0660E0A6E100E3C
:1016F0000B6EF3EC12F0090E5F6E1E0E5E6EE40EC2
:10170000E82EFED75E2EFCD75F2EFAD700F000F051
:1017100007EF0BF07851C95DCA51800A5E6E7951AE
:10172000800A5E58D8B097EF0BF099EF0BF0ABEF53
:101730000BF08B9A8B88010E50EC14F0000E0A6EA1
:10174000000E31EC13F05C0E0A6E100E0B6EF3EC13
:1017500012F07BEF0BF08B9A8B98010E50EC14F08B
:10176000000E0A6E000E31EC13F0210E0A6E100E00
:101770000B6EF3EC12F07BEF0BF000EF00F01EC0ED
:1017800036F01FC037F020C038F021C039F022C039
:101790003AF023C03BF024C03CF025C03DF03DBEF4
:1017A000D4EF0BF0D7EF0BF0010ED8EF0BF0000EDB
:1017B000346E356A34503510D8B4E1EF0BF0E3EFF6
:1017C0000BF0F3EF0BF03D1E3C1E3B1E3A1E391E84
:1017D000381E371E366C000E3722382239223A2244
:1017E0003B223C223D22000165BFF9EF0BF0FBEFED
:1017F0000BF0FCEF0BF0669365BF09EF0CF0655141
:1018000006E16405D8B007EF0CF009EF0CF00FEF1C
:101810000CF0000E316E010E306E13EF0CF064C050
:1018200030F065C031F062C032F063C033F0345044
:101830003510D8A41EEF0CF020EF0CF027EF0CF0C1
:1018400066A525EF0CF027EF0CF02AEF0CF032061E
:10185000D8A03306000E3F6E1F0E3E6E000E9D6F29
:10186000AEEF0CF03E06D8A03F067E0E3E24D96EA9
:10187000000E3F20DA6E36C001F037C002F038C0EB
:1018800003F039C004F03AC005F03BC006F03CC09C
:1018900007F03DC008F00A0E096E000E0A6E000E39
:1018A0000B6E000E0C6E000E0D6E000E0E6E000E16
:1018B0000F6E000E106EA8EC0FF001C026F002C0F3
:1018C00027F003C028F004C029F005C02AF006C0A4
:1018D0002BF007C02CF008C02DF026C013F028C054
:1018E00014F013EC14F01350300FDF6E3006D8A054
:1018F00031063206D8A0330636C001F037C002F0F8
:1019000038C003F039C004F03AC005F03BC006F01F
:101910003CC007F03DC008F00A0E096E000E0A6ECA
:10192000000E0B6E000E0C6E000E0D6E000E0E6E95
:10193000000E0F6E000E106EE4EC0EF001C036F0DB
:1019400002C037F003C038F004C039F005C03AF0E7
:1019500006C03BF007C03CF008C03DF03FBEB9EF09
:101960000CF03F5008E13E04D8A0B9EF0CF0BBEFFB
:101970000CF0ECEF0CF036503710381039103A10EC
:101980003B103C103D10D8A4C8EF0CF0CAEF0CF08F
:1019900032EF0CF031BED7EF0CF0315006E13004DD
:1019A000D8B0D5EF0CF0D7EF0CF032EF0CF033BE1F
:1019B000E2EF0CF0335008E13204D8A0E2EF0CF073
:1019C000E4EF0CF0ECEF0CF0000166B3EAEF0CF082
:1019D000ECEF0CF032EF0CF034503510D8A4F3EFEC
:1019E0000CF0F5EF0CF0FDEF0CF0000166A5FBEF3D
:1019F0000CF0FDEF0CF01BEF0DF03E06D8A03F06FB
:101A000034503510D8A407EF0DF009EF0DF00FEFAB
:101A10000DF0000E2F6E2B0E2E6E13EF0DF0000E3C
:101A20002F6E2D0E2E6E7E0E3E24D96E000E3F20A0
:101A3000DA6E2EC0DFFF1CC011F01DC012F07E0E4A
:101A40003E24136E000E3F20146E32C015F033C0DA
:101A500016F03BEC12F011C01CF012C01DF0120089
:101A600042C0D9FF43C0DAFFDECFF6FFDDCFF7FF7C
:101A70000800F550250AD8A440EF0DF042EF0DF014
:101A8000EEEF0DF042C0D9FF43C0DAFFDE2A000EB0
:101A9000DD22000E0001636F000E626F62C066F00F
:101AA00063C067F06469656942C0D9FF43C0DAFF6B
:101AB000DECFF6FFDDCFF7FF0800F550640AD8B49B
:101AC00064EF0DF066EF0DF078EF0DF042C0D9FF36
:101AD00043C0DAFFDECFF6FFDDCFF7FF0800F55099
:101AE000690AD8A476EF0DF078EF0DF0B8EF0DF09D
:101AF00042C0D9FF43C0DAFFDE2A000EDD2244C017
:101B0000D9FF45C0DAFFDFCF46F0020EDE26DFCF79
:101B100047F0000EDD2246C0D9FF47C0DAFFDECF16
:101B200048F0DDCF49F0000E49BEFF0E4A6E4B6E05
:101B30004C6E4D6E4E6E4F6E40C01CF041C01DF09D
:101B400048C01EF049C01FF04AC020F04BC021F031
:101B50004CC022F04DC023F04EC024F04FC025F001
:101B6000BFEC0BF01CC040F01DC041F009EF0EF0BF
:101B700042C0D9FF43C0DAFFDECFF6FFDDCFF7FF6B
:101B80000800F550250AD8A4C8EF0DF0CAEF0DF0F3
:101B9000E1EF0DF042C0D9FF43C0DAFFDE2A000EAC
:101BA000DD22000E026E250E016E40C003F041C022
:101BB00004F0D6EC11F0000E416E010E406E09EFFC
:101BC0000EF042C0D9FF43C0DAFFDE2A000EDD224C
:101BD000000E416E000E406E09EF0EF042C0D9FFBC
:101BE00043C0DAFFDECFF6FFDDCFF7FF0800F55088
:101BF000016E026A40C003F041C004F0D6EC11F05F
:101C000042C0D9FF43C0DAFFDE2A000EDD22DBEF3F
:101C10000DF012000F6E0F50D8B411EF0EF013EF4D
:101C20000EF035EF0EF00ABE1AEF0EF018EF0EF0C0
:101C300035EF0EF007C00BF008C00CF009C00DF036
:101C40000AC00EF00B1E0C1E0D1E0E1E0B2A000EDF
:101C50000C220D220E220BC011F00CC012F00DC090
:101C600013F00EC014F03DEF0EF007C011F008C0E5
:101C700012F009C013F00AC014F007500810091040
:101C80000A10D8A446EF0EF048EF0EF052EF0EF017
:101C9000000E076E000E086E000E096E000E0A6E32
:101CA000E3EF0EF0960E106E5CEF0EF0102AD89057
:101CB0001432133212321132000E11140B6E000E58
:101CC00012140C6E000E13140D6EFE0E14140E6E14
:101CD0000B500C100D100E10D8A471EF0EF073EF16
:101CE0000EF056EF0EF081EF0EF0102A010E1126C5
:101CF000000E122213221422D89014321332123200
:101D00001132000E11140B6E000E12140C6E000E28
:101D100013140D6EFF0E14140E6E0B500C100D10DC
:101D20000E10D8A496EF0EF098EF0EF075EF0EF0AF
:101D3000A0EF0EF01006D890113612361336143676
:101D400013BEA5EF0EF0A7EF0EF0AFEF0EF0020EF0
:101D50001060ADEF0EF0AFEF0EF09AEF0EF010B096
:101D6000B4EF0EF0B6EF0EF0B7EF0EF0139ED89072
:101D7000103210C00BF00C6A0D6A0E6A0BC00EF028
:101D80000D6A0C6A0B6A0B5011120C5012120D5096
:101D900013120E5014120F50D8B4D1EF0EF0D3EF2F
:101DA0000EF0DBEF0EF00ABEDAEF0EF0D8EF0EF019
:101DB000DBEF0EF0148E11C007F012C008F013C054
:101DC00009F014C00AF01200000E126E10BEEDEF02
:101DD0000EF0EBEF0EF0FFEF0EF0101E0F1E0E1EBA
:101DE0000D1E0C1E0B1E0A1E096C000E0A220B2271
:101DF0000C220D220E220F221022010E126E08BE9E
:101E000006EF0FF004EF0FF018EF0FF0081E071E9B
:101E1000061E051E041E031E021E016C000E022279
:101E2000032204220522062207220822010E121A8A
:101E300020EE13F0070EDE6AE806FDE209500A10F4
:101E40000B100C100D100E100F101010D8B42BEF3B
:101E50000FF02DEF0FF07FEF0FF0010E116E3BEF43
:101E60000FF0D89009360A360B360C360D360E3682
:101E70000F361036112A10AE40EF0FF042EF0FF080
:101E800031EF0FF0D8901336143615361636173654
:101E9000183619361A360950015C0A5002580B5090
:101EA00003580C5004580D5005580E5006580F504A
:101EB000075810500858D8A060EF0FF062EF0FF0ED
:101EC00073EF0FF00950015E0A50025A0B50035A8B
:101ED0000C50045A0D50055A0E50065A0F50075A0E
:101EE0001050085A1380D89010320F320E320D3233
:101EF0000C320B320A320932112E42EF0FF012501F
:101F0000D8B485EF0FF087EF0FF097EF0FF01A1EA0
:101F1000191E181E171E161E151E141E136C000EF9
:101F20001422152216221722182219221A2213C04F
:101F300001F014C002F015C003F016C004F017C081
:101F400005F018C006F019C007F01AC008F012001A
:101F5000000E126E08BEB1EF0FF0AFEF0FF0C3EF3F
:101F60000FF0081E071E061E051E041E031E021E7D
:101F7000016C000E022203220422052206220722FF
:101F80000822010E126E10BECAEF0FF0C8EF0FF05C
:101F9000DAEF0FF0101E0F1E0E1E0D1E0C1E0B1E74
:101FA0000A1E096C000E0A220B220C220D220E22A0
:101FB0000F22102209500A100B100C100D100E10D9
:101FC0000F101010D8B4E7EF0FF0E9EF0FF031EF7A
:101FD00010F0010E116EF7EF0FF0D89009360A36A7
:101FE0000B360C360D360E360F361036112A10AE63
:101FF000FCEF0FF0FEEF0FF0EDEF0FF00950015C7A
:102000000A5002580B5003580C5004580D500558F4
:102010000E5006580F50075810500858D8A013EF0C
:1020200010F015EF10F025EF10F00950015E0A5086
:10203000025A0B50035A0C50045A0D50055A0E50B8
:10204000065A0F50075A1050085AD89010320F32C3
:102050000E320D320C320B320A320932112EFEEFE3
:102060000FF01250D8B437EF10F039EF10F049EFFD
:1020700010F0081E071E061E051E041E031E021E6B
:10208000016C000E022203220422052206220722EE
:10209000082201C001F002C002F003C003F004C036
:1020A00004F005C005F006C006F007C007F008C040
:1020B00008F0120030343134376E3750D8A463EF53
:1020C00010F065EF10F06FEF10F0000E2E6E000EA6
:1020D0002F6E000E306E000E316EDCEF10F02EC051
:1020E00032F02FC033F030C034F031C035F0200E64
:1020F0007FEF10F0D8903532343233323232E82E5E
:102100007AEF10F03250366E308EFF0E2E16FF0E24
:102110002F16FF0E3016000E3116960E375E37BEA4
:1021200096EF10F094EF10F0ACEF10F03750800AFB
:10213000970FD8B09EEF10F0A0EF10F0A2EF10F0C4
:1021400065EF10F0D890313230322F322E32373ED8
:10215000A2EF10F0C4EF10F01F0E3764B2EF10F0D2
:10216000B4EF10F0BCEF10F065EF10F0D8902E3601
:102170002F363036313637063750D8A4C2EF10F03C
:10218000C4EF10F0B6EF10F03650D8B4CAEF10F02C
:10219000CCEF10F0D4EF10F0311E301E2F1E2E6C3D
:1021A000000E2F22302231222EC02EF02FC02FF011
:1021B00030C030F031C031F01200036E10EF11F07A
:1021C000370E5DEF11F0380E5DEF11F0390E5DEF57
:1021D00011F02F0E5DEF11F0340E5DEF11F0350EA2
:1021E0005DEF11F0360E5DEF11F02A0E5DEF11F08C
:1021F000310E5DEF11F0320E5DEF11F0330E5DEF39
:1022000011F02D0E5DEF11F0630E5DEF11F0300E49
:102210005DEF11F03D0E5DEF11F02B0E5DEF11F053
:102220000350016E026A0250000AD8B41AEF11F08E
:102230005DEF11F00150000AD8B4E0EF10F0010A90
:10224000D8B4E3EF10F0030AD8B4E6EF10F0010AB7
:10225000D8B4E9EF10F0070AD8B4ECEF10F0010A97
:10226000D8B4EFEF10F0030AD8B4F2EF10F0010A7F
:10227000D8B4F5EF10F00F0AD8B4F8EF10F0010A57
:10228000D8B4FBEF10F0030AD8B4FEEF10F0010A47
:10229000D8B401EF11F0070AD8B404EF11F0010A25
:1022A000D8B407EF11F0030AD8B40AEF11F0010A0D
:1022B000D8B40DEF11F05DEF11F012008A680368D9
:1022C000000E046E04C001F0010E026E012A6BEFD5
:1022D00011F0D8900236012E69EF11F00250FF0A7A
:1022E0008A16000E056E05C001F0040E0126010ECF
:1022F000026E012A7EEF11F0D8900236012E7CEF9B
:1023000011F0025081140009D8A489EF11F08BEF6D
:1023100011F0A8EF11F00450040DF3500524036EE2
:1023200005C001F0040E0126010E026E012A9BEF8A
:1023300011F0D8900236012E99EF11F0025081145D
:102340000009D8B4A6EF11F0A8EF11F090EF11F04A
:10235000052A030E0564AFEF11F0B1EF11F073EF32
:1023600011F0030E026E080E016E770EE82EFED7F6
:10237000012EFCD7022EFAD700F004C001F0010EA6
:10238000026E012AC6EF11F0D8900236012EC4EF7A
:1023900011F002508A12042A030E0464D2EF11F0E5
:1023A000D4EF11F062EF11F003501200035004104B
:1023B000D8B4DDEF11F0DFEF11F0E8EF11F00350CA
:1023C0000410D8A4E6EF11F0E8EF11F0EDEF11F0F2
:1023D0000150D2EC14F03AEF12F020EE04F003506A
:1023E000D9260450DA22DE50DE10D8B4FAEF11F00C
:1023F000FCEF11F017EF12F020EE04F00350D92695
:102400000450DA2210EE02F00350E1260450E222DA
:10241000DE50E65CE650800A096EDE50800A0958FC
:10242000D8B015EF12F017EF12F03AEF12F020EEDD
:1024300002F00350D9260450DA22DECF05F0DDCFBA
:1024400006F003C0D9FF04C0DAFFDECF07F0DDCF0E
:1024500008F005500724D96E06500820DA6E01C036
:10246000DFFF20EE02F00350D9260450DA22DE2AE4
:10247000000EDD221200000166A141EF12F043EFD1
:1024800012F04DEF12F013C00AF014C00BF011C09F
:102490000CF012C00DF0F1EC13F016BE52EF12F07A
:1024A00054EF12F05AEF12F015C01AF016C01BF0DC
:1024B0005EEF12F0000E1B6E000E1A6E000E196E0B
:1024C000000E186E70EF12F0000E026E200E016EFC
:1024D00011C003F012C004F0D6EC11F0184A192A0A
:1024E0001A50185C1950800A176E1B50800A175832
:1024F000D8A07DEF12F07FEF12F064EF12F0000130
:1025000066B185EF12F087EF12F091EF12F013C071
:102510000AF014C00BF011C00CF012C00DF0F1EC79
:1025200013F013C001F014C002F088EC14F01A503C
:102530000124116E1B500220126E1200F28E928046
:102540007E80C30EC216CF0EC116C280C08EC05090
:10255000C70B0809C06EC050F80B0609C06EC282D6
:10256000C2B2B5EF12F0B7EF12F0B0EF12F0140EE6
:10257000196EAE0E1A6E230E1B6E410E1C6EC3CF6B
:1025800001F0C4CF02F0000E046E050E036EB9EC2C
:1025900014F001C007F002C008F0096A0A6A000ED0
:1025A0000AEC0EF007C015F008C016F009C017F0CD
:1025B0000AC018F037EC08F015C02EF016C02FF046
:1025C00017C030F018C031F05AEC10F02EC03AF0BD
:1025D0002FC03BF0000EC46E000EC36E3AC038F040
:1025E0003BC039F01200000E0E6E11EF13F00E50CA
:1025F0000A240C6E000E0B200D6E0CC0F6FF0DC0F1
:10260000F7FF000EF86E0F0EF76403D00800F550C8
:1026100005D0F6CFE9FFF7CFEAFFEF50A3EC14F0B7
:102620000E2A0E500A240C6E000E0B200D6E0CC0EC
:10263000F6FF0DC0F7FF000EF86E0F0EF76403D023
:102640000800F55005D0F6CFE9FFF7CFEAFFEF50CD
:102650000009D8A42EEF13F030EF13F0F7EF12F0CB
:1026600012000F6E020E0A6038EF13F03AEF13F00B
:1026700068EF13F00F0E0F6440EF13F042EF13F00A
:1026800044EF13F068EF13F00A04D8B44AEF13F0E4
:102690004CEF13F056EF13F0800E0FC00BF00C6AE6
:1026A0000B100D6E0C500E6E5EEF13F0C00E0FC0CF
:1026B0000BF00C6A0B100D6E0C500E6E0D5050ECA2
:1026C00014F00D0E0B6EFC0EE82EFED70B2EFCD771
:1026D000120052C056F053C057F0000E0001616F57
:1026E000000E606F87EF13F050C040F051C041F012
:1026F000560E426E000E436E54C044F055C045F075
:1027000030EC0DF04050000160274150612356C06D
:10271000F6FF57C0F7FF0800F5500009D8A493EF63
:1027200013F095EF13F074EF13F060C050F061C038
:1027300051F01200076E0750100B026E0750200B6D
:10274000046E0440E8423F0B046E0750400B056ED8
:1027500005380F0B056E0750800B066E0644010B03
:10276000066E0250041005100610036E03501D0B78
:10277000036E8350E20B836E83500310836E01B0AF
:1027800002D0839E01D0838E839C838A839A120019
:102790005C0E0001BE6F000EBF6F58C0C0F059C084
:1027A000C1F0000EC36F000EC26F000EC56F000EA9
:1027B000C46FC00E506E000E516E5AC052F05BC016
:1027C00053F0BE0E546E000E556E69EC13F000010E
:1027D000C2515824D96EC3515920DA6E000EDF6EF3
:1027E0001200000E106E000E0F6E02EF14F00EC0FD
:1027F00001F0026A0CC003F00DC004F0D6EC11F039
:102800000F4A102A0F500A24D96E10500B20DA6E8E
:10281000DF500E6E0E50D8A410EF14F012EF14F02B
:10282000F7EF13F0120014BE20EF14F0145006E17D
:102830001304D8B01EEF14F020EF14F02EEF14F0B4
:1028400013C015F014C016F0151E161E154A162AD0
:1028500015C013F016C014F032EF14F013C013F0CB
:1028600014C014F01200000E836E000E956E838269
:10287000270E0A6EF50EE82EFED70A2EFCD700F0C2
:10288000320E50EC14F0280E50EC14F00C0E50ECFC
:1028900014F0010E50EC14F0060E50EC14F012007F
:1028A000096E0D0E086EFC0EE82EFED7082EFCD722
:1028B000000E016E09509AEC13F00938F00B096E06
:1028C000030E086E980EE82EFED7082EFCD7000ED9
:1028D000016E09509AEC13F01200A00EF66E290E4C
:1028E000F76E000EF86E00EED1F010EE04F0090065
:1028F000F5CFEEFFE550E150FAE100EE60F05E0E3C
:10290000EE6AE806FDE1000EF86E000104EF0AF041
:1029100001C003F002C004F090EF14F0014A022A53
:1029200001C0D9FF02C0DAFFDF50D8A49AEF14F03B
:102930009CEF14F08EEF14F00350015C016E045014
:102940000258026E1200096E0D0E086EFC0EE82E83
:10295000FED7082EFCD7010E016E09509AEC13F039
:102960000938F00B096E010E016E09509AEC13F054
:10297000120001500302F3CF05F0F4CF06F001502E
:102980000402F350062602500302F350062605C047
:1029900001F006C002F01200F00E936E8A68120079
:0629A00063002800120094
:020000040020DA
:08000000FFFFFFFFFFFFFFFF00
:020000040030CA
:0E000000FF021F1EFF8981FF0FC00FE00F409F
:00000001FF
